:020000040800F2
:10000000A811002045010008612800088525000886
:100010005D280008690E0008452C0008000000005B
:10002000000000000000000000000000F5280008AB
:100030006D0E0008000000006D280008F728000879
:100040005F010008652800085F0100085F010008E3
:100050005F0100085F0100085F0100085F01000800
:100060005F0100085F0100085F0100085F010008F0
:100070005F0100085F0100085F0100085F010008E0
:100080005F0100085F0100085F0100085F010008D0
:100090005F0100085F0100085F0100085F010008C0
:1000A0005F0100085F0100085F0100085F010008B0
:1000B0005F0100085F0100085F0100085F010008A0
:1000C0005F0100085F0100085F0100085F01000890
:1000D0005F010008352C00085F0100085F0100087F
:1000E0006F0E00085F0100085F0100085F01000853
:1000F0005F0100085F0100085F0100085F01000860
:100100005F0100085F0100085F0100085F0100084F
:10011000692900085F0100085F0100085F0100080D
:100120005F0100085F0100085F0100085F0100082F
:10013000DFF80CD000F0CCFB00480047C14B0008B2
:10014000A81100200648804706480047FEE7FEE762
:10015000FEE7FEE7FEE7FEE7FEE7FEE7FEE7FEE777
:10016000652900083101000830B50B460146002022
:100170002022012409E021FA02F59D4205D303FA69
:1001800002F5491B04FA02F52844151EA2F10102EA
:10019000F1DC30BD202A04DB203A21FA02F00021F4
:1001A000704721FA02F3D040C2F120029140084387
:1001B0001946704710B5431A934209D2831888181C
:1001C00003E010F8011D03F8011D521EF9D210BD05
:1001D00040EA01039B0703D009E008C9121F08C0C9
:1001E000042AFAD203E011F8013B00F8013B521E49
:1001F000F9D210BDD2B201E000F8012B491EFBD2AA
:1002000070470022F6E710B513460A460446194621
:10021000FFF7F0FF204610BD421E12F8013F002BF1
:10022000FBD111F8013B02F8013B002BF9D17047DB
:1002300030B505462A460B4612F8010B13F8014B60
:1002400008B1A042F8D01CB1002802D06D1CF1E723
:10025000284630BDCAB2401E10F8011F8A4202D0A3
:100260000029F9D100207047421C10F8011B002919
:10027000FBD1801A704710B5002200E0521C835C4D
:100280008C5CA34201D1002BF8D1D8B2E1B2401A64
:1002900010BDCBB203E00178994203D0401C521E3E
:1002A000F9D200207047034611F8012B00F8012B0A
:1002B000002AF9D11846704700F0ACB83EB5CA170D
:1002C000CB0F002450405140C0186141DA0740F282
:1002D00033430094CDE901232246234600F0F1F890
:1002E00003B030BD30B5041E71F1000404DB4FF0E3
:1002F0000044404264EB0101141E73F1000405DB6D
:100300001C464FF00043524263EB04038B4208BF8C
:10031000824230BD2DE9F05F0546002092469B46A3
:1003200088460646814640241BE02846414647460B
:100330002246FFF72FFF53465A46C01A914110D369
:1003400011461846224600F0D5FA2D1A67EB01082F
:100350004F4622460120002100F0CCFA17EB00099D
:100360004E41201EA4F10104DFDC484631462A46F6
:100370004346BDE8F09F00000FB4002300B589B0EC
:100380000CA900910B996FF00042CB601E4B0693B5
:100390001E4B07930423CDE901321D4A0892024601
:1003A0006B46002000F056FB09B05DF814FB70B5F9
:1003B00086B006464FF0FF300091CDE901010020E4
:1003C00015460C4604903246694604A8FFF7D4FF50
:1003D00003460498211825B108B10A4600E02246D8
:1003E0002A6000280DD0002B02DD0098884208D03A
:1003F000081B0094CDE901043246694604A8FFF7C2
:10040000BBFF06B070BD00008D0C0008AB0C0008EF
:10041000410900082DE9F04791460E468046044602
:10042000002514F8017B2FB100F086FA0068C05D4A
:10043000C007F6D12B2F02D02D2F1ED0641E4A46A6
:100440003146204600F042FC26B13268A24201D17A
:10045000C6F800806A054FF0020418D50023D0EBDF
:10046000030563EB01025D1B934109DB0023D0EB25
:10047000030063EB0101BDE8F08745F48065DEE72A
:1004800002F05CFC046000204FF00041F3E7021E24
:1004900071F10002EFDA02F051FC04604FF0FF301E
:1004A0004108E8E710B5141E73F1000408DA401C97
:1004B00041F1000192185B411A4301D120F0010083
:1004C00010BD2DE9F04D92469B4611B1B1FA81F273
:1004D00002E0B0FA80F22032904600F00BFA0446B7
:1004E0000F4640EA0A0041EA0B0153465A460843C8
:1004F00013D0114653EA010019D0C8F1400250460A
:10050000FFF748FE05460E4650465946424600F063
:10051000F1F9084305D0012004E020463946BDE842
:10052000F08D0020054346EAE0762C4337430A98D5
:100530006305E40AA0EB08000022FD0A44EA4754E0
:100540000A3002D500200146E9E70105101969418A
:10055000DDE9084500196941BDE8F04DA2E72DE944
:10056000FE4F804681EA0300C00F0C46009021F048
:10057000004123F00045B8EB0200A94105D24046F6
:10058000214690461C460B46024623F0004010438D
:1005900047D0270DC7F30A00C3F30A510290401A4F
:1005A000019040286BDAC3F3130040F4801B0098DD
:1005B000924620B10023D2EB030A63EB0B0B0198A8
:1005C0005946C0F14002504600F094F906460D46E7
:1005D00050465946019A00F09CF910EB0800614121
:1005E000002487EA115284EAE7731A4340D0009A44
:1005F00062B3019A012A4FEA075215DC001B61EB36
:1006000002014FF0004202EA0752CDE90042001C0D
:1006100041F5801132462B46FFF753FF03B0BDE88A
:10062000F08F40462146F9E7001B61EB0201001CF8
:1006300041F5801300185B412018A2F5001747EB25
:10064000030140EAD570B6196D4111E06D084FEA1B
:10065000360645EAC0754FEA0752001B61EB0201FE
:10066000001C41F5801149084FEA30000019514142
:1006700032462B4603B0BDE8F04FFFF713BF00989A
:10068000012240000023D0EB020263EBE0730098EC
:1006900021464FEAE074B8EB000061EB0401E9E7A2
:1006A00083F000435BE781F0004158E72DE9FE4FFE
:1006B00081EA030404F0004421F0004100944FF06B
:1006C000000B23F0004350EA01045ED052EA030419
:1006D0005BD0C3F30A54C1F30A552C44A4F2F3349B
:1006E0000194A0FB0254C1F3130141F48011C3F340
:1006F000130343F4801301FB024400FB034E840AFE
:10070000970A44EA815447EA8357A4FB0768029595
:100710008D0A05FB07854FEA932C04FB0C54270533
:10072000029D4FEA065847EA1637B5EB08056EEB0F
:10073000070C870E920E47EA811742EA8312A7FB45
:100740000201B6EB0B0164EB00042B0D43EA0C3302
:100750005E1844EB1C50DA465146E7FB0201C5F334
:1007600013044FEA0B3343EA14534FEA0432019C5B
:1007700043EA0603A4F10C040294009CCDE900B402
:10078000FFF79FFE03B0BDE8F08F00200146F9E7B8
:100790002DE9F04D81EA030404F0004B21F00045FF
:1007A00014464FF0000A23F0004150EA050220D021
:1007B00054EA01021DD0C5F30A570246C5F31303DC
:1007C000C1F31300C1F30A5640F4801543F48013BB
:1007D000A7EB0608101BD64608F2FD3873EB0500A0
:1007E00002D308F1010801E092185B41B8F1000F53
:1007F00003DA00200146BDE8F08D00204FF480119F
:10080000064684460EE0171B73EB050705D3121B43
:1008100063EB050306434CEA010C49084FEA30003C
:1008200092185B4150EA0107EDD152EA030012D061
:1008300082EA040083EA0501084305D0101BAB419E
:1008400006D20122002306E000224FF0004302E01E
:100850006FF0010253101AEB06004CEB085110EB3D
:100860000A0041EB0B01BDE8F04DFFF71BBEC1F3E1
:100870000A52C1F3130140F2FF3341F480119A424E
:1008800002DA00200146704740F233439A42A2F256
:10089000334202DC5242FFF77DBC00F02BB800006F
:1008A00030B5041E71F1000404DB4FF000444042F7
:1008B00064EB0101141E73F1000405DB1C464FF0CC
:1008C0000043524263EB0403994208BF904230BD9B
:1008D000064C074D06E0E06840F0010394E807008D
:1008E00098471034AC42F6D3FFF726FC4861000865
:1008F00068610008202A04DB203A00FA02F1002097
:1009000070479140C2F1200320FA03F3194390404D
:100910007047202A06DBCB17203A41FA02F043EA5F
:10092000E07306E041FA02F3D040C2F120029140A8
:1009300008431946704700000048704704610008EA
:1009400010B50446FFF7F8FF0068005D00F00100F5
:1009500010BD00002DE9FF4F087881B09946FF28AF
:1009600005D0491C2D2804D00024002308E00023D2
:100970000BE00124F9E703EB830300EB4303491C7D
:100980000878FF28F7D104B15B420020009014786A
:1009900001462D2C01D02B2C04D1521C2D2C12D011
:1009A0000024009400251678FF2E0ED00A24A0FB08
:1009B00004C801FB0481002700FB0711521C16EB41
:1009C0000C006941EFE70124EBE7994450EA01028A
:1009D0000ED00024AA4D2646DFF8A88200F0E5F9E3
:1009E00082468B46B9F1000009DAC9F100071BE025
:1009F00001980021C0E9001105B0BDE8F08F07465D
:100A000012E0F80707D022462B4630464146FFF752
:100A10004DFE0646884622462B4610461946FFF7ED
:100A200045FE04460D467F10002FEAD1B9F1000FB4
:100A3000324643465046594602DAFFF7A9FE01E026
:100A4000FFF734FE009A0AB181F00041019AC2E931
:100A50000001D1E72DE9FF4F1F468DB0D7E90146D0
:100A60004FF0FF382E2045464FF000090B90B96932
:100A70006D1C0E988847396A824688470028F6D14F
:100A8000BAF1FF3F0AD024F4D064002E11DDBAF190
:100A90002B0F08D0BAF12D0F0BD102E0404611B058
:100AA000ABE744F48064B9696D1C0E9888478246B0
:100AB000761E6946600501D52D2000E02B208DF8BB
:100AC000000001F1010B0DF1200809E0B9696D1C6E
:100AD0000E98884782460F9844F40074761E05608D
:100AE000002E02DDBAF1300FF0D00B998A453ED1CD
:100AF00044F0800406E00F99681CA9F1010944F450
:100B000000740860B9696D1C761E0E98884782468D
:100B10003028F0D02BE00B998A4505D1200603D46C
:100B200044F08004761E18E0504602F0CDF908B378
:100B30000DF11301761E44F400748B4508D2AAF11E
:100B400030000BF8010B200607D5A9F1010003E0E6
:100B5000200602D409F101008146A00502D50F99B3
:100B6000681C0860B9696D1C0E9888478246002E83
:100B7000D1DC53E0002E51DDBAF1650F02D0BAF19D
:100B8000450F4BD1A00549D5B9696D1C24F44074BB
:100B9000761E0E9888478246002E0CDD2B2804D046
:100BA000BAF12D0F07D144F48074B9696D1C0E9809
:100BB00088478246761EE00501D52D2100E02B21D5
:100BC00008F8011BCDF82C8021E00DF12901761EDB
:100BD00044F4007488450CD2AAF1300010F0FF00F4
:100BE00088F8000002D10B99884509D908F101085D
:100BF00006E0E00501D5244801E042F20F7081468D
:100C0000B9696D1C0E98884782460F980560002EC2
:100C100004DD504602F058F90028D6D1F9690E9843
:100C20008847FF208BF8000088F80000002006901D
:100C300007904B466A4608A906A8FFF78BFEA00559
:100C400002D46FF001002AE714F0240F0AD0E00765
:100C500014D1DDE906123868031D3B600068C0E965
:100C600000120BE0DDE9060100F0ABF80146E007F9
:100C700004D13868021D3A600068016028460EE71A
:100C8000000024400000F03FF1D8FFFF426842B16D
:100C9000016811F8013B23B1521EC0E90012184649
:100CA00070470121C160881E704742685AB1C3680D
:100CB000016843B983688B4205D0491E521CC0E9C4
:100CC0000012002070474FF0FF3070472DE9F74FBA
:100CD0004FF00009009C1546CA4614F8010B302855
:100CE00001D0ADB115E014F8010B4FF001097828DF
:100CF00003D0582801D04DB10BE00DB1102D08D113
:100D00004FF00009102514F8010B02E0082500E05F
:100D10000A2500273E46B8464FEAE57B16E0A5FBCC
:100D200007230BFB073105FB080005FB0616030C28
:100D3000D71846F100061FFA80F8381E4FF0010957
:100D400076F5803000D3CA4614F8010B294600F02E
:100D50001EF80028E3DA019838B1B9F1000F01D08C
:100D6000641E00E0009C01980460BAF1000F08D0F6
:100D700001F0E4FF02210160C81E014603B0BDE896
:100D8000F08F310441EA174148EA0740F6E73A2874
:100D900000D2303820F02002412A01D3A2F13700DE
:100DA000884201D34FF0FF3070470EB540F2334216
:100DB00002920022CDE900221346FFF782FB03B026
:100DC00000BD01F0004330B421F0004150EA0102BF
:100DD00006D00A0DA2F56072C1F31301002A02DCED
:100DE00030BC00207047440F44EAC104C100E01841
:100DF00030BC00EBC250AFF300800029A8BF7047A1
:100E0000401C490008BF20F00100704710B4B0FA40
:100E100080FC00FA0CF050EA010404BF10BC7047DB
:100E200049B1CCF1200421FA04F411FA0CF118BFF5
:100E3000012121430843A3EB0C01CB1D4FEA0061C4
:100E40004FEA102042BF002010BC704700EBC35097
:100E500010440029A4BF10BC7047401C490008BFC3
:100E600020F0010010BC704700BFFEE7704710B5CE
:100E70004FF4006000F0DCFA4FF4805000F0D8FA34
:100E800010BD72B600BFFEE70021074AD1610749D5
:100E9000096941F00401054A11611146096941F0EF
:100EA00040011161704700008805002000200240C9
:100EB0000021074AD1610749096941F00201054A49
:100EC000116111464861096941F0400111617047A3
:100ED00088050020002002400022054BDA61054A07
:100EE000126942F00102034B1A6101807047000051
:100EF000880500200020024000201E49C96801F03A
:100F0000100139B11C49C96941F002011A4AD16185
:100F100040F010001749C96801F0040139B11649C1
:100F2000C96941F00101144AD16140F0040011493E
:100F3000C96901F0010169B10F49C96941F00401B2
:100F40000D4AD16100BF0B49C96921F00101094A6D
:100F5000D16100BF00BF40F20111884206D10549AE
:100F6000C96921F00101034AD16101E00149C8606A
:100F700000BF7047002002408805002070B504467D
:100F800000F00AFC054609E0601C38B124B100F00D
:100F900003FC401BA04201D9032070BD1248C06869
:100FA00000F001000028EFD10F48C06800F02000D9
:100FB00020B100BF20200C49C86000BF0A48C068AB
:100FC00000F0100048B90848C06900F0010020B9DD
:100FD0000548C06800F0040018B1FFF78DFF01203C
:100FE000DBE70020D9E700000020024010B54FF4F5
:100FF000FA7209A10AA004F044F94FF4FA720AA1A6
:101000000CA004F03EF94FF4FA720DA10FA004F009
:1010100038F9012010BD00002B4353513A00000065
:1010200041542B43535100002B435245473A203043
:101030002C31000041542B435245473F0000000033
:101040002B43474154543A203100000041542B4374
:10105000474154543F00000010B54FF47A7202A18A
:1010600005A004F00EF910BD2B4350494E3A205212
:10107000454144590000000041542B4350494E3F24
:101080000000000070B50446002594F821000228F5
:1010900003D00420A0630125C1E02068006820F08F
:1010A0000E00216808602068006820F001002168B7
:1010B00008605C492068884252D95A4978392068CA
:1010C000884201D1012047E05649643920688842AE
:1010D00001D1102040E0534950392068884201D1A5
:1010E000801539E04F493C392068884201D180148D
:1010F00032E04C4928392068884202D14FF48030D0
:101100002AE0484914392068884202D14FF48010FF
:1011100022E044492068884201D140041CE0424951
:101120002068884201D1012016E03F49143120682F
:10113000884201D110200FE03B49283120688842C5
:1011400001D1801508E038493C312068884201D13E
:10115000801401E04FF480303349091F086051E0EA
:10116000304978392068884201D1012047E02D4973
:1011700064392068884201D1102040E02949503963
:101180002068884201D1801539E026493C39206821
:10119000884201D1801432E02249283920688842EF
:1011A00002D14FF480302AE01E4914392068884269
:1011B00002D14FF4801022E01A492068884201D100
:1011C00040041CE018492068884201D1012016E043
:1011D000154914312068884201D110200FE01249CE
:1011E00028312068884201D1801508E00E493C3141
:1011F0002068884201D1801401E04FF48030094911
:1012000080394860012084F8210000BF002084F864
:10121000200000BF606B10B12046616B88472846F4
:1012200070BD000080000240080402402DE9F0413A
:1012300004460E460127002500BF2648007E0128EF
:1012400002D10220BDE8F08101202249087600BFCA
:101250002068022813D14CF25030FFF78FFE90BB6C
:101260000120FFF711FE4CF25030FFF787FE0746D2
:101270001948006920F004001749086123E04CF286
:101280005030FFF77BFEF0B94FF0FF303060A568BB
:1012900012E02846FFF70CFE4CF25030FFF76EFECE
:1012A00007460D48006920F002000B4908610FB1A4
:1012B000356007E005F50065D4E9021001EBC020B8
:1012C000A842E6D800BF00BF00200249087600BF50
:1012D0003846B7E78805002000200240034800692F
:1012E00040F0800001490861002070470020024062
:1012F0002DE9FE4F05468B461746984601260024E9
:101300000020029000BF2448007E012802D1022064
:10131000BDE8FE8F01202049087600BF4CF2503016
:10132000FFF72CFE064686BB012D02D1012002905C
:1013300006E0022D02D10220029001E0042002907A
:1013400000241EE02201B946C24648465146FEF737
:1013500021FF80B20190022000FB04B000900199AF
:10136000FFF7BAFD4CF25030FFF708FE06460B4877
:10137000006920F001000949086106B104E0601C21
:10138000C4B202988442DDDB00BF00BF00200249E6
:10139000087600BF3046BBE78805002000200240E9
:1013A00000200849096901F0800151B10649054A48
:1013B0005160064951601146096901F0800101B18F
:1013C000012070470020024023016745AB89EFCD23
:1013D000B0F5006F17D11249096841B11149097878
:1013E00029B901210F4A11700F4A117016E00E49F8
:1013F000097899B90D49097881B901210A4A117012
:101400000A4A11700AE0B0F5805F07D105490978F2
:1014100021B903490968491C014A1160704700005D
:1014200000000020110000201800002019000020FA
:1014300010B5044604480068204020B1024804600A
:101440002046FFF7C5FF10BD140401402DE9F84701
:10145000024600239C467BE14FF0010808FA03F4A2
:10146000D1F8008008EA0400A0427DD1DFF8F4A2A0
:10147000D1F80480A8EB0A09D0453AD014DCB8F1C1
:10148000030F50D009DCB8F1000F31D0B8F1010FD3
:101490001CD0B8F1020F49D120E0B8F1110F18D0DB
:1014A000B8F1120F42D11EE0B9F5881F25D006DC35
:1014B000B9F5803F20D0B9F5801F37D11AE0B9F5D2
:1014C000001F18D0B9F5041F30D117E0D1F80CC0B7
:1014D0002DE0D1F80C8008F1040C28E0D1F80C8044
:1014E00008F1080C23E0D1F80C8008F10C0C1EE088
:1014F00000BF00BF00BF00BF00BF00BFD1F8088021
:10150000B8F1000F02D14FF0040C0BE0D1F80880C5
:10151000B8F1010F03D14FF0080C146102E04FF055
:10152000080C546103E04FF0000C00E000BF00BF66
:10153000FF2801D8904601E002F104084646FF2842
:1015400002D84FEA830803E0A3F108084FEA8808AD
:101550004746D6F800804FF00F0909FA07F928EA44
:1015600009080CFA07F900E07AE048EA0908C6F829
:101570000080D1F8048008F08058B8F1805F6FD106
:1015800000BFDFF8E481D8F8188048F00108DFF8E0
:10159000D891C9F81880C846D8F8188008F0010812
:1015A000CDF8008000BF00BF4FEAB9384FEA930979
:1015B00058F829504FEA83784FEA18794FF00F080E
:1015C00008FA09F825EA0805DFF8A081424502D1AA
:1015D0004FF0000824E0DFF89881424502D14FF037
:1015E00001081DE0DFF88C81424502D14FF002086E
:1015F00016E0DFF88481424502D14FF003080FE086
:10160000DFF87881424502D14FF0040808E0DFF8A6
:101610007081424502D14FF0050801E04FF0060805
:101620004FEA83794FEA197908FA09F848EA05057B
:10163000DFF850814FEA930948F82950D1F8048027
:1016400008F48038B8F5803F0BD1DFF83C81D8F83A
:10165000008048EA0008DFF83091C9F800800AE00D
:1016600075E0DFF82481D8F8008028EA0008DFF868
:101670001891C9F80080D1F8048008F40038B8F552
:10168000003F0ED1DFF8008108F10408D8F800808F
:1016900048EA0008DFF8F09009F10409C9F8008071
:1016A0000DE0DFF8E48008F10408D8F8008028EAAB
:1016B0000008DFF8D49009F10409C9F80080D1F8D6
:1016C000048008F48018B8F5801F0ED1DFF8B880C8
:1016D00008F10808D8F8008048EA0008DFF8A89068
:1016E00009F10809C9F800800DE0DFF89C8008F1D5
:1016F0000808D8F8008028EA0008DFF88C9009F183
:101700000809C9F80080D1F8048008F40018B8F579
:10171000001F0ED1DFF8708008F10C08D8F80080A7
:1017200048EA0008DFF8609009F10C09C9F8008068
:101730000DE0DFF8548008F10C08D8F8008028EAA2
:101740000008DFF8449009F10C09C9F800805B1C1F
:10175000D1F8008028FA03F8B8F1000F7FF47CAECE
:10176000BDE8F88700001110001002400008014099
:10177000000C01400010014000140140001801401D
:10178000001C014008000140000401400AB1016151
:1017900001E00B04036170470148006870470000D6
:1017A0002C000020034800680349097808440149D7
:1017B000086070472C0000203400002010B5084855
:1017C000006840F0100006490860032000F0B0F8FF
:1017D000002000F007F800F02BF8002010BD0000FA
:1017E0000020024070B504460E4800784FF47A712C
:1017F000B1FBF0F00C490968B1FBF0F5284600F0A8
:1018000025FC08B1012070BD102C07D20022214612
:10181000501E00F04FF80548046001E00120F2E797
:101820000020F0E7340000203800002030000020C5
:1018300008B500BF1548806940F001001349886170
:101840000846806900F00100009000BF00BF00BFA3
:101850000846C06940F08050C8610846C06900F081
:101860008050009000BF00BF00221146012000F010
:1018700021F8012000F00EF800BF0549486820F06B
:10188000E06000BF486000BF08BD000000100240DB
:101890000000014001460846002809DB00F01F0354
:1018A00001229A4043099B0003F1E023C3F8002181
:1018B00000BF70472DE9F05F80460D4616460027B1
:1018C00001F020FA074639462A46334601F0070060
:1018D000C0F1070ABAF1040F02D94FF0040A01E07F
:1018E000C0F1070AD14600F1040ABAF1070F02D28B
:1018F0004FF0000A01E0A0F1030AD4464FF0010ABC
:101900000AFA09FAAAF1010A0AEA020A0AFA0CFA20
:101910004FF0010B0BFA0CFBABF1010B0BEA030BC5
:101920004AEA0B042146404601F0F4F9BDE8F09F75
:1019300000BF00F00702064B19684FF6FF0319407D
:10194000044B0B4343EA0221014B196000BF70476F
:101950000CED00E00000FA057047000010B50648E5
:10196000006800F4803028B1FFF7F6FF4FF48030B4
:101970000149086010BD00001404014070B5044620
:101980000D460CB9012070BD5A48006800F00700F0
:10199000A8420ED25748006820F007002843554956
:1019A00008600846006800F00700A84201D0012046
:1019B000E9E7207800F0020002281DD1207800F02D
:1019C0000400042805D14C48406840F4E0604A49CE
:1019D0004860207800F00800082805D14648406893
:1019E00040F46050444948604348406820F0F000AB
:1019F000A168084340494860207800F0010078B3AE
:101A00006068012806D13C48006800F4003090B9B5
:101A10000120B8E76068022806D13748006800F066
:101A2000007040B90120AEE73348006800F00200C2
:101A300008B90120A7E73048406820F0030061683A
:101A400008432D494860FFF7A7FE064609E0FFF767
:101A5000A3FE801B41F28831884202D9032092E71D
:101A600007E02548406800F00C006168B0EB810F8A
:101A7000EDD12048006800F00700A8420ED91D48AB
:101A8000006820F0070028431A49086008460068EB
:101A900000F00700A84201D0012074E7207800F090
:101AA0000400042807D11448406820F4E060E1688D
:101AB000084311494860207800F00800082808D140
:101AC0000D48406820F46050216940EAC1000A498D
:101AD000486000F03FF808494968C1F30311074A1C
:101AE000515CC8400649086006480068FFF77AFE66
:101AF000002048E700200240001002403C6000083F
:101B000038000020300000200148006870470000C5
:101B10003800002000B5FFF7F7FF04494968C1F31A
:101B20000221034A515CC84000BD00000010024081
:101B30004C60000800B5FFF7E7FF04494968C1F3AE
:101B4000C221034A515CC84000BD000000100240A1
:101B50004C600008F0B585B00FF26C0C9CE8E0100A
:101B600001A8A0E8E0101CA52D6800950021002226
:101B7000002300240020194D696801F00C05F5B11F
:101B8000042D02D0082D19D101E0154819E001AD4E
:101B9000C1F38346AC5D01F4803555B10F4D6D68DE
:101BA000C5F340451DF805200D4D6543B5FBF2F327
:101BB00002E00C4D04FB05F3184602E000BF0848A4
:101BC00000BF00BF05B0F0BD020304050607080909
:101BD0000A0B0C0D0E0F1010010200000010024045
:101BE00000127A0000093D00F8B504460CB9012046
:101BF000F8BD207800F00100002878D0F84840684F
:101C000000F00C0004280CD0F548406800F00C00EF
:101C1000082811D1F248406800F48030B0F5803FC8
:101C20000AD1EF48006800F4003000285FD06068F7
:101C300000285CD10120DBE700BF6068B0F5803F81
:101C400006D1E748006840F48030E549086028E0A4
:101C5000606858B9E248006820F48030E0490860C4
:101C60000846006820F4802008601AE06068B0F53B
:101C7000A02F0BD1DA48006840F48020D8490860D2
:101C80000846006840F4803008600AE0D4480068E4
:101C900020F48030D24908600846006820F4802093
:101CA000086000BF606888B1FFF776FD054606E072
:101CB000FFF772FD401B642801D9032098E7C8484C
:101CC000006800F400300028F2D010E0FFF764FD57
:101CD000054606E0FFF760FD401B642801D903209C
:101CE00086E7BF48006800F400300028F2D1207871
:101CF00000F00200022857D1B948406800F00C00FB
:101D000050B1B748406800F00C00082818D1B4481A
:101D1000406800F4803098B9B148006800F00200D3
:101D200020B12069012801D0012061E7AC4800689A
:101D300020F0F800616940EAC100A949086033E079
:101D40002069E8B10120A7490860FFF725FD054695
:101D500006E0FFF721FD401B022801D9032047E7D9
:101D60009F48006800F002000028F2D09C480068FC
:101D700020F0F800616940EAC1009949086013E069
:101D8000002098490860FFF707FD054606E0FFF7C9
:101D900003FD401B022801D9032029E79048006871
:101DA00000F002000028F2D1207800F00800082896
:101DB0002DD1A069B8B101208B490860FFF7ECFC78
:101DC000054606E0FFF7E8FC401B022801D9032086
:101DD0000EE78348406A00F002000028F2D001209C
:101DE00000F046FD13E000207F490860FFF7D4FCB7
:101DF000054606E0FFF7D0FC401B022801D903206E
:101E0000F6E67748406A00F002000028F2D1207818
:101E100000F00400042873D100277148C06900F065
:101E2000805070B900BF6E48C06940F080506C4966
:101E3000C8610846C06900F08050009000BF00BF34
:101E400001276A48006800F48070B0B967480068EC
:101E500040F4807065490860FFF79EFC054606E087
:101E6000FFF79AFC401B642801D90320C0E65F48B5
:101E7000006800F480700028F2D000BFE0680128FC
:101E800006D15748006A40F001005549086227E032
:101E9000E06858B95248006A20F0010050490862D1
:101EA0000846006A20F00400086219E0E06805288E
:101EB0000BD14B48006A40F00400494908620846CB
:101EC000006A40F0010008620AE04548006A20F01C
:101ED0000100434908620846006A20F004000862D5
:101EE00000BFE068A0B1FFF757FC054609E0FFF727
:101EF00053FC401B41F28831884202D9032077E627
:101F000022E03748006A00F002000028EFD012E01B
:101F1000FFF742FC054608E0FFF73EFC401B41F29C
:101F20008831884201D9032062E62D48006A00F01A
:101F300002000028F0D1012F05D12948C06920F006
:101F400080502749C86100BFE069C8B32448406891
:101F500000F00C00082860D0E069022848D1002079
:101F600020490866FFF718FC054606E0FFF714FC59
:101F7000401B022801D903203AE61948006800F006
:101F800000700028F2D1206AB0F5803F07D11448D4
:101F9000406820F40030A168084311494860D4E942
:101FA000080108430E49496821F4741108430C499B
:101FB000486001200B490866FFF7EEFB054607E085
:101FC0003DE0FFF7E9FB401B022801D903200FE6A3
:101FD0000348006800F000700028F2D02FE00000F5
:101FE0000010024000004242800442420070004063
:101FF000002014490866FFF7CFFB054606E0FFF70F
:10200000CBFB401B022801D90320F1E50E480068F4
:1020100000F000700028F2D111E0E069012800D141
:10202000E6E50948466806F48031206A814204D119
:1020300006F47011606A814201D00120D8E50020C9
:10204000D6E50000000042420010024070B5044690
:102050002546681EB0F1807F01D301200FE0681E85
:102060004FF0E02148610F214FF0FF3000F052FEA9
:1020700000204FF0E021886107200861002070BD3A
:10208000704700002DE9F047044620680568206885
:10209000C668206847694FF00008C14605F00F0880
:1020A000B8F1000F0AD105F0200038B106F0200089
:1020B00020B1204600F08AFCBDE8F087B8F1000F9F
:1020C00071D007F0010018B906F4907000286AD0AA
:1020D00005F0010030B106F4807018B1E06B40F0FB
:1020E0000100E06305F0040030B107F0010018B111
:1020F000E06B40F00200E06305F0020030B107F051
:10210000010018B1E06B40F00400E06305F0080046
:1021100048B106F0200010B907F0010018B1E06BDB
:1021200040F00800E063E06B68B305F0200028B1E0
:1021300006F0200010B1204600F048FC20684069FD
:10214000C0F38019E06B00F0080010B9B9F1000F7E
:1021500022D0204600F01AFC2068406900F04000C0
:10216000B0B12068406920F0400021684861606B90
:1021700050B11848616B4863606BFEF783FF10B184
:10218000606B416B88470CE02046FFF779FF08E061
:102190002046FFF775FF04E02046FFF771FF00209F
:1021A000E06389E7FFE705F0800030B106F08000CA
:1021B00018B1204600F0D8FC7EE705F0400030B1B1
:1021C00006F0400018B1204600F0F0FB74E700BFB5
:1021D00072E700007929000810B504460CB9012007
:1021E00010BDA06900B100E000BF94F8390028B923
:1021F000002084F83800204600F028F8242084F8D5
:1022000039002068C06820F400502168C86020466A
:1022100000F02CFC2068006920F4904021680861DF
:102220002068406920F02A00216848612068C06861
:1022300040F400502168C8600020E063202084F84A
:10224000390084F83A000020CAE7000010B586B0D3
:102250000446002002900390049005903C492068B9
:10226000884237D100BF3B48C06940F4002039495B
:10227000C8610846C06900F40020019000BF00BF9B
:1022800000BF0846806940F01000886108468069F8
:1022900000F01000019000BF00BF0815029002205E
:1022A00003900320059002A92B48FFF7CFF84FF4C5
:1022B0000060029000200390049002A92648FFF7D6
:1022C000C5F8002201213420FFF7F4FA3420FFF78B
:1022D000E1FA3AE021492068884236D100BF1D4822
:1022E000806940F480401B4988610846806900F499
:1022F0008040019000BF00BF00BF0846806940F0E9
:10230000040088610846806900F00400019000BF65
:1023100000BF48150290022003900320059002A9F7
:102320000F48FFF793F84FF480600290002003906D
:10233000049002A90A48FFF789F80022012125200C
:10234000FFF7B8FA2520FFF7A5FA06B010BD000088
:10235000004C0040001002400010014000380140D5
:102360000008014010B5034693F83A0020282FD109
:1023700001B10AB9012010BD00BF93F8380001284F
:1023800001D10220F7E7012083F8380000BF9962ED
:102390009A85DA850020D863222083F83A0000BFAE
:1023A000002083F8380000BF1868C06840F48070CF
:1023B0001C68E0601868406940F001001C686061BA
:1023C0001868C06840F020001C68E0600020D2E778
:1023D0000220D0E710B504461849206888421ED173
:1023E000012217491748FFF7BDFF15480078164925
:1023F000164A1268885415480068401C1349086042
:102400000F4800780A2817D10846008882B20E4982
:102410000F4800F08AF800200C4908600CE00D49D4
:102420002068884208D10648007803F0C3FD0122E5
:1024300003490748FFF796FF10BD00000038014030
:102440001A0000203C0100207C0100201C0000201C
:10245000FC000020004C00402DE9F84F04460E46D9
:10246000174699464FF0000A94F8390020285AD1AF
:1024700006B117B90120BDE8F88F00BF94F8380005
:10248000012801D10220F6E7012084F8380000BFBE
:102490000020E063212084F83900FFF77DF98246AF
:1024A000A784E784A068B0F5805F04D1206910B9E3
:1024B0000025B04602E035464FF0000800BF00207E
:1024C00084F8380000BF1BE05346002280212046DC
:1024D000CDF8009000F078FB08B10320CBE745B9B8
:1024E000B8F80000C0F308002168486008F102084D
:1024F00003E02878216848606D1CE08C401EE08471
:10250000E08C0028E0D15346002240212046CDF83F
:10251000009000F059FB08B10320ACE7202084F8BC
:1025200039000020A7E70220A5E710B5034693F87D
:102530003900202823D101B10AB9012010BD00BF04
:1025400093F83800012801D10220F7E7012083F831
:10255000380000BF19629A84DA840020D8632120F1
:1025600083F8390000BF002083F8380000BF1868E6
:10257000C06840F080001C68E0600020DEE70220B8
:10258000DCE7704700BFFEE72DE9F041A0B005464B
:10259000884616461F4601242A461BA1684600F0BD
:1025A00067FB4FF47A721EA1684602F06AFE044689
:1025B00044B14FF47A721BA11BA002F062FE08B175
:1025C000012000E0002004464FF4FA7001F091F879
:1025D00044B133463A46414617A002F05DFE08B1C9
:1025E000012000E00020044634B933463A46414613
:1025F00011A002F051FE08B1012000E000200446C5
:10260000204620B0BDE8F08141542B48545450502E
:102610004152413D2255524C222C2225732200006A
:1026200055524C004F4B000041542B4854545041DC
:102630004354494F4E3D300041542B48545450525E
:102640004541440010B54FF47A7203A103A002F093
:1026500018FE0446204610BD4F4B000041542B4845
:10266000545450494E49540010B54FF47A7209A1A0
:1026700009A002F006FE4FF47A7206A10EA002F045
:1026800000FE4FF47A7203A112A002F0FAFD0120BD
:1026900010BD00004F4B000041542B53415042529B
:1026A0003D332C312C22434F4E54595052222C2270
:1026B000475052532200000041542B534150425284
:1026C0003D332C312C2241504E222C22434D4E457D
:1026D0005422000041542B53415042523D312C3181
:1026E0000000000000B585B000200190029003902A
:1026F000049000BF3248806940F010003049886182
:102700000846806900F01000009000BF00BF00BFC5
:102710000846806940F0040088610846806900F03E
:102720000400009000BF00BF00BF0846806940F071
:10273000200088610846806900F02000009000BFFA
:1027400000BF00BF0846806940F008008861084665
:10275000806900F00800009000BF00BF0022E02167
:102760001848FFF713F8E0200190012002900020A4
:1027700003900220049001A91248FEF767FE4FF46F
:1027800000600190104802900020039001A90F48BA
:10279000FEF75CFE4FF4805001900D48029000203F
:1027A000039001A90948FEF751FE002201212820CB
:1027B000FFF780F82820FFF76DF805B000BD000096
:1027C00000100240000801400000111000140140F8
:1027D0000000211010B50D480D4908604FF4E1309C
:1027E000486000210A488160C16001610C2141619B
:1027F00000218161C161FFF7EFFC08B1FEF741FBE9
:10280000012204490248FFF7ADFD10BD004C004015
:10281000FC0000201A00002010B50D480D4908608A
:102820004FF4E130486000210A488160C1600161D5
:102830000C21416100218161C161FFF7CDFC08B12C
:10284000FEF71FFB012204490248FFF78BFD10BD74
:10285000003801403C0100201A00002000BFFEE7C4
:1028600000BFFEE710B5FFF779F810BD7047000014
:1028700008B508490968C9084FF47A72B1FBF2F14A
:102880004143009100BF00BF00994A1E00920029F9
:10289000F9D108BD3800002010B54FF47A7208A1B4
:1028A0000BA002F0EEFC42F210720CA10EA002F09E
:1028B000E8FC4FF47A7202A105A002F0E2FC10BD20
:1028C0002B4350494E3A20524541445900000000E4
:1028D00041542B4350494E3F00000000534D5320BC
:1028E000524541445900000041542B524553455430
:1028F00000000000704710B5FEF754FF10BD00B592
:102900008FB0282105A8FDF77CFC14216846FDF74F
:1029100078FC01200590000406900020079001201B
:10292000099002200C90C1030D914FF4E0110E911B
:1029300005A8FFF759F908B1FEF7A3FA0F20009098
:1029400002200190002002904FF48060039000204C
:10295000049002216846FFF711F808B1FEF791FADA
:102960000FB000BD7047000010B50248FFF78AFBAA
:1029700010BD0000FC00002070B505466C6A002008
:10298000E085E0842046FFF77BFB70BD0168C968E5
:1029900021F490710268D1600168496921F0010158
:1029A00002685161202180F83A10704710B5044642
:1029B0002068C06820F040002168C860202084F8AA
:1029C00039002046FFF7DDFD002010BD70B504463C
:1029D00094F83A00222847D1A068B0F5805F0CD166
:1029E000206950B90025A66A20684068C0F3080035
:1029F0003080A06A801CA06215E0A56A0026A0684D
:102A0000B0F5805F03D0A06828B9206918B92068A4
:102A10004068287004E02068406800F07F0028705B
:102A2000A06A401CA062E08D401E80B2E085C8B95B
:102A30002068C06820F020002168C8602068C06855
:102A400020F480702168C8602068406920F001008F
:102A500021684861202084F83A002046FFF7BAFC3C
:102A6000002070BD0020FCE70220FAE770B50446A4
:102A70002168096921F44051E2681143226811611B
:102A80002269A1681143626941EA02052168C968A7
:102A900041F20C62914329432268D160216849695F
:102AA00021F44071A2691143226851612D4A2168C5
:102AB000914202D1FFF73EF801E0FFF72BF800EB5F
:102AC000C00101EB001162689200B1FBF2F100EB72
:102AD000C00202EB001263689B00B2FBF3F26423B6
:102AE000B2FBF3F202EBC20303EB0212A1EB820191
:102AF000322202EB01116422B1FBF2F101F0F0018C
:102B000000EBC00202EB001263689B00B2FBF3F221
:102B10006423B2FBF3F201EB021200EBC00101EB04
:102B2000001163689B00B1FBF3F100EBC00303EB02
:102B300000136668B600B3FBF6F36426B3FBF6F346
:102B400003EBC30606EB0313A1EB8301322303EB74
:102B500001116423B1FBF3F101F00F01114422686C
:102B6000916070BD00380140014691F8390021287C
:102B700028D18868B0F5805F0BD1086948B90A6A26
:102B80001088C0F308000B685860086A801C08624F
:102B900005E00B6A581C086218780B685860C88CEE
:102BA000401E80B2C88458B90868C06820F0800010
:102BB0000B68D8600868C06840F040000B68D860B7
:102BC000002070470220FCE72DE9F04104460D4645
:102BD00017469846069E21E0701CF8B12EB1FEF70C
:102BE000DBFDA0EB0800B04218D92068C06820F4D3
:102BF000D0702168C8602068406920F00100216819
:102C00004861202084F8390084F83A0000BF002091
:102C100084F8380000BF0320BDE8F0812068006818
:102C20002840A84201D1012000E00020B842D3D0C2
:102C30000020F1E710B50248FFF724FA10BD0000AC
:102C40003C01002000BFFEE70FB41CB50A46521E2F
:102C5000CDE9000207A9054B6A46069800F03CF949
:102C6000009A002111701CBC5DF814FB07360008A7
:102C70000FB4084B10B504A902AA039800F02CF970
:102C8000044602A9002000F0C9FC204610BC5DF8F3
:102C900014FB00001D3600087CB5491E1C46154675
:102CA000CDE90001044B6A462146284600F014F99C
:102CB000009A002111707CBD0736000830B47446BC
:102CC000641E2578641CAB4200D21D46635D5B0028
:102CD000E31830BC1847012249005205D14201D106
:102CE000002801D00020704701207047002800D044
:102CF00001200143480002494008081AC00F7047EC
:102D00000000F07F02480068C0F302207047000016
:102D10000CED00E010B5002804DB0A07130E054A8D
:102D2000135406E00A07140E034A00F00F031B1F9A
:102D3000D45410BD00E400E018ED00E000487047F6
:102D40006000002002E008C8121F08C1002AFAD162
:102D500070477047002001E001C1121F002AFBD11B
:102D6000704700002DE9FF5FDDE90220010DDDF86D
:102D700038B0024318D044F61050A1F2FF3141435D
:102D80000D140F98012820D0A5EB0B00401C5FEA22
:102D9000000A4FF00004474EDFF81C91A046504651
:102DA00016D5CAF1000728E00F98012443A2012894
:102DB00008D0002100980F9BC0E90021C0E9024320
:102DC000BDE8FF9F6FEA0B01F4E7CBF10000DEE7FF
:102DD000074612E0F80707D02246334640464946E8
:102DE000FDF764FC80468946224633461046194664
:102DF000FDF75CFC04460E467F10002FEAD1DDE9AA
:102E00000201BAF1000F42464B4602DAFDF74EFCD2
:102E100001E0FDF7BDFC04460E460022284BFDF7FD
:102E20003FFD03D84FF0FF30014607E00022254B5D
:102E300020463146FDF793FBFDF719FD102409E00C
:102E4000002C0ADB0A220023FDF764FA019B3032D2
:102E50001A55641E50EA0102F2D1641C019AC4F1B1
:102E6000110314440F9A012A03D0012208430DD103
:102E70000AE0084304D000204FF0110B0F9080E7C8
:102E8000A3EB0B056D1E0DE05B4504DD4FF000026A
:102E900005F1010504E003DA4FF00002A5F1010598
:102EA000002AECD000980F99C0E90231C0E9004532
:102EB00086E70000000024400000F03F30000000E2
:102EC0000000F0430000E03F30380A2801D2012022
:102ED00070470020704700002DE9FF4F95B09B46DA
:102EE0008946064600250FE2252877D1002427468B
:102EF000F84A0121059400E0044316F8013F203B05
:102F000001FA03F01042F7D130782A2811D06FF07F
:102F10002F033078A0F13002092A16D8059A44F020
:102F2000020402EB820203EB42021044761C05907D
:102F3000EFE759F8042B0592002A03DA504244F4D3
:102F40000054059044F00204761C30782E2816D1E7
:102F500016F8010F44F004042A280DD06FF02F0258
:102F60003078A0F13003092B09D807EB870302EB77
:102F70004303C718761CF3E759F8047B761C3078B6
:102F80006C280FD006DC4C2817D068280DD06A2892
:102F900014D104E0742810D07A280FD10DE044F445
:102FA00000140AE044F4801401E044F44014727800
:102FB000824202D104F58014761C761C3078662893
:102FC0000BD013DC582877D009DC002875D04528B1
:102FD000F6D04628F4D047281AD19DE118E063289E
:102FE00035D0642879D0652812D195E1702873D046
:102FF00008DC6728F1D069286FD06E280DD06F28C3
:1030000006D1B5E073282CD0752875D0782874D0F7
:103010005A46179990476D1C75E1C4F30250022877
:1030200009D003280DD0D9F8001004280DD00D6068
:1030300009F1040967E1D9F80010EA17C1E9005263
:10304000F6E7D9F800100D80F2E70D70F0E719F8F7
:10305000041B8DF8001000208DF80100EA460120C5
:1030600003E059F804AB4FF0FF3061074FF0000167
:1030700002D40DE008F101018846B9420FDA80451B
:10308000F8DB1AF808100029F4D108E008F1010172
:1030900088468142FADB1AF808100029F6D1059813
:1030A0005B46A0EB080721463846179A00F094FAD1
:1030B000284400EB080507E04DE029E10DE01AF88F
:1030C000010B5A4617999047B8F10108F7D25B46B1
:1030D00021463846179A13E142E00A220092C4F3CF
:1030E00002524FF0000A022A08D059F804CB032AF2
:1030F0004FEAEC710AD00DE029E02AE009F107015E
:1031000021F00702F2E802C1914609E00FFA8CFCB7
:103110004FEAEC71042A03D14FFA8CFC4FEAEC71B0
:10312000002907DA0A460021DCF1000C61EB0201FC
:103130002D2202E0220504D52B228DF80420012245
:1031400003E0E20701D02022F7E7904659E00A2188
:1031500002E010220DE010214FF0000A00910BE078
:1031600010224FF0000A44F004040827009203E004
:1031700008224FF0000A0092C4F30252022A05D03E
:1031800059F804CB0021032A08D009E009F107010E
:1031900021F00702F2E802C1914605E01FFA8CFC1B
:1031A000042A01D10CF0FF0C4FF00008220728D5AB
:1031B000702806D0009B83F0100353EA0A0305D061
:1031C0000EE040228DF80420012208E05CEA0102B2
:1031D00006D030228DF804208DF80500022290469A
:1031E000009B83F0080353EA0A030AD15CEA010258
:1031F00001D1620705D530228DF804204FF0010877
:103200007F1E582804D034A003900EA802900DE031
:1032100036A0F9E753466046009AFDF77BF88446EE
:103220000398825C0298401E029002705CEA0100E2
:10323000F0D1029806A9081A00F1200A600702D509
:1032400024F4803400E00127574502DDA7EB0A0093
:1032500000E0002000EB0A01009005984144401A6C
:103260000590E00306D45B462146179A059800F0C6
:10327000B3F90544002706E001A85A46C05D179936
:1032800090476D1C7F1C4745F6DBE0030CD55B4681
:103290002146179A059800F09FF9054404E0302074
:1032A0005A46179990476D1C0099481E00900029B6
:1032B000F5DC08E0029802995A460078491C029110
:1032C000179990476D1CBAF10001AAF1010AF1DCCF
:1032D00065E10000092801003031323334353637DA
:1032E0003839616263646566000000003031323352
:1032F00034353637383941424344454600000000F2
:1033000000F058F90544761C307800287FF4ECADC5
:1033100019B02846BDE8F08F620700D4062709F1EE
:10332000070222F0070CFCE80223E14603F0004804
:103330005FEA080C02D00FF2702C0DE05FEA045C2B
:1033400002D50FF2682C07E05FEAC47C02D00FF2CE
:10335000602C01E0AFF2700C4FF0FF3823F0004317
:10336000CDF850C065280CD006DC452809D0462889
:103370001DD047283DD13DE0662818D067287ED172
:1033800038E00021112F01DB112000E0781CCDE98D
:10339000000106A90EA8FFF7E5FCDDE90F010E9A72
:1033A00003910021009207F1010A04914DE04FF0D2
:1033B00000400097CDE9011006A90EA8FFF7D2FC46
:1033C000DDE90F0203920E9B11990022DDF80CA09B
:1033D0000093049211B9791C00EB010AB7EB0A00C3
:1033E00004D4C0F1FF3007F1010A0490AAEB0700F2
:1033F000019044E0012F00DA01270021112F01DDA7
:10340000112000E03846CDE9000106A90EA8FFF71B
:10341000A9FCDDE90F010E9A0391002104910092AD
:10342000BA4621070CD40399514500DA8A46BAF10D
:10343000010F05DD009AAAF10101515C302908D085
:10344000B84202DA10F1040F06DA0121CDE90110C9
:1034500015E0AAF10101E9E7002805DC049901441F
:103460000491AAEB000102E0411C514500DD8A46AF
:103470000499401A401C01904FF000400290200730
:1034800004D40198504501DBCDF8048000208DF86C
:103490004F0002980DF14F07B0F1004F25D02B20BF
:1034A0000E9002984FF0020800280CDA4042029079
:1034B0002D200E9007E00A210298FCF755FE3031CE
:1034C000029007F8011DB8F10001A8F10108F2DC33
:1034D00002980028EFD1791E0E980870307800F01D
:1034E000200040F0450007F8020D12A8C01B00F1B3
:1034F00007081498007800B1012000EB0A01019838
:1035000001EBE07105984144401A401E0590E0032C
:1035100006D45B462146179A059800F05DF80544ED
:103520001498007818B15A46179990476D1CE0031B
:1035300024D55B462146179A059800F04DF80544BE
:103540001CE00498002807DBDDE90301884203DD65
:103550000098405C179901E0179930205A4690472F
:10356000049805F10105401C04900198401E01904B
:1035700004D12E205A46179990476D1CBAF10001CC
:10358000AAF1010ADDDC05E017F8010B5A4617998C
:1035900090476D1CB8F10001A8F10108F4DC5B460E
:1035A0002146179A0598ABE62D0000002B0000007D
:1035B000200000002DE9F041044600251E46174674
:1035C000880404D405E039462020B0476D1C641EF1
:1035D000F9D52846BDE8F0812DE9F04104460025E3
:1035E0001E469046C80301D5302700E020278804F6
:1035F00004D505E041463846B0476D1C641EF9D538
:103600002846BDE8F0814A68002A06D00A68531CA3
:103610000B6010704868401E486070470A68531C71
:103620000B601070704770B50D4604998C009900BE
:103630008918AA0010182246FCF7BCFD70BD0000D6
:1036400038B505460C468CB16B460AA20CA128463B
:1036500000F080FE0C480099FCF725FE08210A487E
:1036600002F06EFC00200949087002E000200749C2
:10367000087038BD6465766963655F636F64650073
:103680007B733A737D0000006C0000201100002065
:103690000A680C30824204D14868824201D101207C
:1036A00070470020704710B503461978002075292F
:1036B00001D0AFF300800122995C00010C46303C40
:1036C000092C02D8401830380CE00C46613C192C0B
:1036D00002D84018573805E00C46413C192C05D853
:1036E00040183738521C042AE6DD10BD0020C043C4
:1036F00010BD10B504460021204600F001F810BDB1
:1037000010B500220BE042F6E06200BF1300A2F108
:10371000010204D00029F9D00B78002BF6D0030069
:10372000A0F1010004D00029EDD00B78002BEAD0E5
:1037300009B100230B7010BD0FB4F0B5D5B0002057
:1037400000255290ED435A980C462AAE5395002816
:1037500038D05DABA02130465C9AFFF79DFA002778
:1037600050A8C771002C24D02046283001F054FE08
:10377000A1695391E569616A529100280DD00178E1
:1037800000290AD0E16A142913D800902AAB10A2AC
:10379000A02102A8FFF758FA08E06069801C08D051
:1037A0002AAB0FA2A02102A8FFF74EFA28A8C771E2
:1037B00002AE10A0009001962A46529B53995A9847
:1037C00000F05FFE55B0F0BC08BC04B01847000024
:1037D0002573206E65617220272573270000000085
:1037E0002573206E65617220656E64206F662066A9
:1037F000696C65002573000010B5002821D0114BBD
:103800000022001F196803E0814203D80A46496874
:103810000029F9D152B11368841A9C4204D100687E
:1038200018441060104602E0506000E0186039B1A2
:1038300002680B1A934203D10B681A44026049686C
:10384000416010BD6400002070B5044688184E4ADF
:1038500080180246154646E023785B1965782D02EC
:10386000EB18A5782D04EB18E5782D06EE182379D2
:103870009A1863791B029A18A3791B049A18E379A2
:103880001B069B18227A1018627A12021018A27A6C
:1038900012041018E27A12061518701B1C262A460C
:1038A000F24142401046ED181B1A1A26F2415A40C6
:1038B00013464019ED1A1826F2416A4015461B18A6
:1038C000401B1026F2414240EE1810461B1A0D25EF
:1038D000EA4153408519F21A18461C26F04150401F
:1038E0005A190C390C340C29B6D80B00FFF7E6F93D
:1038F0000D4A2724211E1C191613110E0B0829002E
:10390000E17A09060818A17A09040818617A0902FF
:103910000818217A0818E17909068A18A17909049A
:103920008A18617909028A1821798A18E1780906CA
:103930004D19A17809044D19617809024D192178B2
:103940004D1912231146D9415040411A15230846FA
:103950004D40D841281A07240346E3414240D21A79
:1039600010241346E3415140C91A1C240B46484019
:10397000E341C01A42401223D841101A41400822A4
:10398000D041081A70BD0000EFBEADDE10B5044690
:1039900000F004F8606800F0B1FD10BD70B5054698
:1039A0000C35046908E06668A068241F00F043FB3A
:1039B000204600F0A3FD3446AC42F4D170BDF8B50A
:1039C0000446406800F09AFDA1680126491C304673
:1039D0008840A1600090C00000F098FD6060002861
:1039E00003D0002025460C3509E00020C043F8BD77
:1039F000C10062680B1DD5506268401C5550227A88
:103A0000314691408142F3D822696D602D600DE00E
:103A1000171F566838680099FCF7A6FB6068C90054
:103A200041183A1D204600F05DFA3246AA42EFD115
:103A30000020F8BDFFB581B01F460E46FFF728FEF7
:103A4000002813D13468251F2868B84206D12846BB
:103A500014300399FCF70FFC002804D07068A042D2
:103A600004D06468EFE7284605B0F0BD0020FBE70E
:103A700070B504460D460846FCF7F6FB0B490A688C
:103A800001462846FFF7E0FE237A01219940491EAE
:103A900001406268C900511803462A462046FFF7D4
:103AA000C9FF002800D0C06870BD00005C00002085
:103AB00070B50446002020600320A060402000F084
:103AC00025FD6060002806D020460C3020610021D2
:103AD0000123E06009E00020C04370BDCA006568B2
:103AE000161DA8516568491CA850257A1A46AA4097
:103AF0008A42F3D8002070BD00B501460C3100F0B9
:103B000003F800BD10307047024648680C329042FE
:103B100000D100207047806870470000FFB505465F
:103B2000027A012401682046904081B01F468142FC
:103B300004D32846FFF743FF002840D10298FCF742
:103B400093FB20490A6801460298FFF77DFE06466E
:103B5000287A33468440641E34406868E100401887
:103B6000009001462846029AFFF764FF040004D043
:103B7000E06800F060FAE7601EE00298FCF774FB72
:103B80001521C8421BD2153000F0C0FC040016D02D
:103B9000266003982061204614300299FCF783FBCD
:103BA000201DA060E7606060221D2846009900F09B
:103BB00099F92868401C2860002005B0F0BD00205D
:103BC000C043FAE75C00002070B58CB005460C4697
:103BD000002C30D000200B90284829A10BAA2AA342
:103BE000CDE90432CDE9061029482AA109AA2BA360
:103BF000CDE90032CDE902100AAB29A22AA128465C
:103C000000F0A8FB2E480A99FCF735FB48B12D4877
:103C100000680B9908442B49086029480A99FCF769
:103C200042FB29A10998FCF726FB18B126A10998A7
:103C3000FCF739FB02E00020254908702448007891
:103C4000C8B120480068002807DD1E480068401EF3
:103C50001C49086002F02EF90AE01EA0FCF704FBE4
:103C600086B24FF47A7332461AA11D48FEF7F4FB70
:103C70000020174908700CB070BD00000C00002037
:103C80006F7064656C617900636F756E740000001D
:103C900008000020686264656C617900636D6400EF
:103CA000746F6B656E0000007B733A732C733A730C
:103CB0002C733A692C733A692C733A697D000000C1
:103CC0007C000020040000206E6F6E650000000084
:103CD000190000206E6F20636F756E740A0000007B
:103CE0003C0100202DE9F047E0B007460D464FF4B7
:103CF0007A7340AA2CA13846FEF746FC8046B8F1FC
:103D0000000F32D04FF0000A28A140A8FCF790FA2B
:103D1000064616B100203070707001AA002140A83C
:103D200000F0EEF9044644B1207830B90020204973
:103D3000086001212046A84707E01D480068401C94
:103D40001B49086000212046A847204600F07FF963
:103D500040A8FCF789FA1FFA80F94FF47A734A46B3
:103D600040A91448FEF778FB0FE011480068401C9A
:103D70000F49086010A0FCF777FA84B24FF47A7309
:103D800022460DA10B48FEF767FB0D490D48006860
:103D9000FFF7B6FC06480068032803DA012060B08C
:103DA000BDE8F0870020FAE77D0000000D0A000062
:103DB000140000203C0100206572726F7200000048
:103DC000180000200800002070B50024FDF744F919
:103DD000002838D029A0FCF747FA85B24FF47A734F
:103DE0002A4626A12948FEF737FBFDF7FFF80028F1
:103DF00034D027A0FCF738FA85B24FF47A732A46FC
:103E000023A12248FEF728FBFEF72EFC002825D030
:103E100025A0FCF729FA85B24FF47A732A4622A12D
:103E20001A48FEF719FBFEF70DFCB8B1012423A0D8
:103E3000FCF71AFA85B24FF47A732A461FA1134889
:103E4000FEF70AFB0AE022A0FCF70EFA85B24FF457
:103E50007A732A461EA10D48FEF7FEFA64B91FA028
:103E6000FCF702FA85B241F288332A461BA10748C3
:103E7000FEF7F2FAFEF710FD204670BD73696D7310
:103E800074617465206F6B210A0000003C01002002
:103E90004765744E6574576F726B53746174652017
:103EA0006F6B210A00000000496E69744E657457FB
:103EB0006F726B206F6B210A000000006E6574202A
:103EC000776F726B20616C6C206F6B210A000000B1
:103ED00073696D20657272210A0000005265735388
:103EE00065740A0070B515460C460646FFF7D0FB10
:103EF000002806D0304629460C3000F05AFE656096
:103F000003E02946206800F054FE256070BD70B5BE
:103F1000182000F0FBFA04000ED0012020700025CC
:103F2000E56060600820A060202000F0EFFA2061CA
:103F3000002802D02046656170BD204600F0DEFA00
:103F4000002070BD70B5104E0D0005D0002817D0B0
:103F50000178012914D101E0304670BDA8420FD08C
:103F600001220446114600F01FF8002808D0E1683D
:103F7000206989004550E068401CE060002070BD69
:103F8000284600F04CF8E7E7FFFFFFFF002805D0C8
:103F90000278012A02D1C2688A4201D80020704703
:103FA0000069890040587047F8B50546C068174653
:103FB0004318AA682869934219D906465418500034
:103FC000844200D80446A00000F0A0FA00280ED0D9
:103FD000AC602861002F0BD0E968002300913246C5
:103FE0001946FFF720FB304600F088FA2869F8BD33
:103FF0003046F8BD002802D00178012901D0002008
:104000007047C068704710B5002807D041684A1C47
:1040100004D0491E416001D100F019F810BD10B55F
:10402000002807D041684A1C04D0491E416001D1D4
:1040300000F00DF810BD10B5002807D041684A1CEB
:1040400004D0491E416001D100F001F810BD70B5E7
:1040500000280AD00178002908D001290BD00229B4
:104060001AD0032915D0042913D070BD0446083096
:10407000FFF78CFC0CE00446002504E0A900405842
:10408000FFF7CDFF6D1CE068A8422069F6D805E077
:10409000204600F033FA70BD0446806800F02EFA26
:1040A000F6E700000048704744000020002804D0D4
:1040B00041684A1C01D0491C41607047002804D067
:1040C00041684A1C01D0491C4160704770B50446E4
:1040D0000D46102000F01AFA002804D003210170C8
:1040E0000121021D32C270BD002802D001780329CF
:1040F00002D00020014670478268C16810467047B0
:1041000070B50E46044692B0154612A1104600F056
:10411000A7F9002C0CD00020119010AA104910947F
:10412000684600F06FFA002808D0002012B070BD79
:104130000CA200212846FFF7FFFAF6E72A4631468F
:10414000684600F08DFE0446684600F031FA2046CD
:10415000ECE700003C737472696E673E000000007B
:104160008955000877726F6E6720617267756D659B
:104170006E747300004870474C00002010B5002892
:1041800004D00178032904D0042907D00020014677
:1041900010BDFFF7A9FFFCF791F810BD00F0B7F8CC
:1041A00010BD000010B5242000F0B0F9040004D0C8
:1041B0000E480068002802D004E0002010BD002056
:1041C00000F04EF80020207001206060204608308A
:1041D000FFF76EFC002803D0204600F08FF9ECE7D3
:1041E0000020E0612062204610BD00005C0000203D
:1041F00010B5002904D0002802D00278002A01D08E
:10420000002010BD0830FFF733FC10BD10B50028AA
:1042100002D00178002901D0002010BD0830FFF73E
:104220006BFC10BD10B5002801D0FFF76BFC10BD72
:1042300010B5002808D00278002A05D1002903D043
:104240000830FFF761FC10BD002010BD10B500283C
:1042500001D0FFF760FC10BD002800D01038704777
:1042600038B5084C216800290AD1002807D16846D2
:1042700001F004F80098002801D10120009020608E
:1042800038BD00005C00002070B50E4D140007D052
:10429000002912D0002810D00278002A0DD101E0A8
:1042A000284670BDA04208D0C269531CC361234692
:1042B0000830FFF733FC0028F3D02046FFF7AFFEAD
:1042C000EEE70000FFFFFFFF002802D00178002981
:1042D00001D0002070478068704770B504460D46D5
:1042E000FEF704FD002805D120462946FEF7F3FC21
:1042F000002801D0002070BD102000F007F9002830
:10430000F9D0042101700121021D32C270BD0028C4
:1043100002D00178042902D000200146704782684B
:10432000C16810467047002802D00178022901D0E8
:1043300000207047C0687047002802D00178022929
:1043400001D0002070478068704700000048704727
:104350003C0000200FB408B504A9009100221146CA
:10436000039B00F005F801B008BC04B0184700003A
:10437000FFB595B0224E1E9F1C4605001DD0002C97
:1043800021D0207800281ED00021169800F068F86F
:10439000234601A8179A169900F05AFF01A800F0C9
:1043A000D5FC14AA294601A8149701F007F90021A9
:1043B000002817D0304619B0F0BD12A1169800F0B1
:1043C0004FF812A004E015A1169800F049F816A0C5
:1043D00032460090002334461146169800F051F8FA
:1043E0002046E8E701A8149100F0B0FC08A8007A84
:1043F0000028E0D013A209A101A800F08BFFD9E7A3
:10440000FFFFFFFF3C726F6F743E00004E554C4C37
:1044100020726F6F742076616C7565003C666F72F8
:104420006D61743E000000004E554C4C206F7220B0
:10443000656D70747920666F726D6174207374722B
:10444000696E6700476172626167652061667465C5
:104450007220666F726D617420737472696E67008A
:1044600010B500280AD000225C231A54531E0360A2
:1044700043608260002902D000F00CF810BD027386
:1044800010BD1CB505AC0194049C009400F020F80C
:104490001CBD000070B504000D4616D0002D14D0D0
:1044A0000846FBF7E1FE22460C32502802D229468C
:1044B000104608E006464C3E04A11046FBF7F3FE0A
:1044C0002046A9190F30FBF7EEFE70BD2E2E2E00F0
:1044D00070B50400059D04980FD05C26365D002E53
:1044E0000BD10EC4024620462B46A02150300C3C76
:1044F000FEF7D2FB0020E034E07670BD002802D049
:10450000014949680847704754000020002802D03C
:1045100001490968084770475400002010B501227E
:1045200001F013F810BD70B506460C46481CFFF7A5
:10453000EDFF050007D022463146FBF73BFE002089
:104540002855284670BD002070BD0000FEB50F46FE
:104550000646FEF7F3FB00210190016069463068D2
:1045600001F01EF804460D4603CE4018009988421B
:1045700001D0AFF3008000220B4B20462946FBF709
:10458000B1FE06D00022094B20462946FBF7AAFEC1
:1045900003D101980068022802D030C70020FEBD78
:1045A0000020C043FEBD00000000F07F0000F0FFCF
:1045B00010B50446406BC11FF93902D1204600F006
:1045C00005F82046283000F0FEFE10BD10B5044668
:1045D000806BFFF793FF0020A063E06310BD10B570
:1045E00000F01CFF10BD70B5054600F017FF044633
:1045F000401C05D0A01C03D02146284600F01AF824
:10460000204670BD10B5044606C400202070A0608E
:10461000E060012160612161E06120462030083CBA
:1046200000F0DDFE0100024801D16063002010BDF2
:10463000FFFFFFFF10B5C9B2283000F081FE10BDAA
:10464000F8B5054628300F46009000F0B7FE686BBD
:10465000C11FF93902D12846FFF7B8FF394628466D
:10466000FFF7BDFF04462028F8D0092CF6D00A2C0D
:10467000F4D00D2CF2D0601C57D0384EA01C59D06D
:1046800021462846FFF7D6FF7B2C3CD07D2C3AD024
:104690005B2C38D05D2C36D03A2C34D02C2C32D038
:1046A000222C32D020463038092833D92D2C31D055
:1046B0001138192802D9613C192C3ED839462846B0
:1046C000FFF791FF014641381928F7D908466138AC
:1046D0001928F3D9284600F059FA009800F09CFEFA
:1046E00004461FA1FBF7C7FD002819D01EA12046D4
:1046F000FBF7C1FD002816D01DA12046FBF7BBFD2E
:10470000002814D016E06C6315E03946284600F006
:10471000F9F810E03A462146284600F02DF80AE064
:10472000FF20043001E0FF200530686303E0FF2034
:104730000630FAE76E63686BF8BD2C46083408E073
:104740002846FFF777FF2869401C2861686A401CEB
:1047500068622869015D0029F2D1EBE7FFFFFFFFE6
:10476000747275650000000066616C73650000007E
:104770006E756C6C00000000F7B50026F64384B03F
:10478000044646632D2903D10699FFF72CFF014605
:1047900030292FD00846303809286FD8204606998E
:1047A000FFF721FF014630380928F7D9254628357B
:1047B0002E2937D045294FD065294DD0204600F00D
:1047C000E5F9284600F028FE0546FEF7B7FA002175
:1047D000074601600A2202A92846FBF76DFD024642
:1047E000386802280FD0E06A029B4019984214D022
:1047F000AFF3008020460699FFF7F5FE01463038FA
:1048000009283BD9D2E7002901DA2DA200E033A222
:1048100021460698FEF790FF33E0FF200230A263A6
:1048200060634AE020460699FFF7D9FE014630381A
:104830000A28204602D300F063FE22E0FFF7FAFECA
:1048400020460699FFF7CFFE014630380928F7D9F0
:10485000452901D065291FD120460699FFF7C3FEDF
:1048600001462B2801D02D2904D120460699FFF7B7
:10487000BAFE0146084630380A2805D3204600F023
:1048800085F9304607B0F0BD20460699FFF7ABFE2C
:10489000014630380928F7D9204600F077F96946F3
:1048A0002846FFF753FE002801D010A2B0E7FF20F2
:1048B0000330606301990098A0630020E163E1E7A1
:1048C000746F6F20626967206E65676174697665D1
:1048D00020696E746567657200000000746F6F2058
:1048E00062696720696E7465676572007265616CE4
:1048F000206E756D626572206F766572666C6F777B
:1049000000000000F3B583B0002605468663701EE4
:1049100068634DE0A01C0FD0601C0ED01F2C10D877
:104920002146284600F032F90A2C234607D069A216
:1049300029460498FEF700FF94E06CA21AE071A2E9
:10494000F6E75C2C34D128460499FFF74CFE752815
:1049500015D022282CD05C282AD02F2828D06228D5
:1049600026D0662824D06E2822D0722820D0742821
:104970001ED069A229460498FEF7DEFE72E02846A2
:104980000499FFF730FE04460027204630380A28F5
:1049900005D31138062802D3613C062CE9D22846FB
:1049A0000499FFF720FE7F1C0446042FEDDB04E092
:1049B00028460499FFF717FE0446222CAAD1E86A7C
:1049C000401CFFF7A3FD07004CD028462830AF63FA
:1049D00000F022FD441C72E05C286DD16078641CFC
:1049E00075280BD0662860D055DC222864D02F288B
:1049F00062D05C2860D0622853D154E02046FEF794
:104A000052FE0190002802DA631E47A290E71B21A4
:104A1000C902411A4C48641D81422BD820785C2879
:104A200025D16078752822D1641C2046FEF73BFE14
:104A30000028E9DB37218902421A4349641D8A4272
:104A400009D80199414A890289180818092189025F
:104A50004018019015E000903DA22946019B049862
:104A6000FEF76AFE2846FFF7B1FD05B0F0BD40A293
:104A7000019B5DE7372101988902411A3248814242
:104A8000F5D902AA3946019801F0D6F9002808D1D3
:104A900002983F1813E06E2809D0722809D07428B4
:104AA00009D0AFF30080082006E00C2004E00A20C3
:104AB00002E00D2000E009203870641C7F1C207883
:104AC000222889D13E70A86B381AE863FF20013094
:104AD0006863CAE7636F6E74726F6C20636861729B
:104AE0006163746572203078257800007072656D9E
:104AF000617475726520656E64206F6620696E70E2
:104B000075740000756E6578706563746564206EF9
:104B100065776C696E650000696E76616C6964200A
:104B20006573636170650000696E76616C6964200D
:104B3000556E69636F6465206573636170652027D6
:104B4000252E367327000000FF0300000000A0FCA4
:104B5000696E76616C696420556E69636F64652067
:104B6000275C75253034585C752530345827000093
:104B7000696E76616C696420556E69636F64652047
:104B8000275C7525303458270000000070B50546B5
:104B90000C46481C0CD0A01C0AD0284600F0B0FCE3
:104BA0002846283000F02CFC844201D0AFF300806E
:104BB00070BD486002680A60026851600160704719
:104BC000A0B0FCF7FBFDFDF79AFEFDF78BFDFDF7AE
:104BD00023FEFDF7FFFD10212048FBF712FB082103
:104BE0001E4800F0F1FA00201C49087234E01C480D
:104BF000007810B9FFF7E8F808B1012000E00020C4
:104C0000174908701748007898B1174817A102682B
:104C10006846FEF72DF81248007830B12049684602
:104C2000FFF760F808B1012000E000200C4908708F
:104C300012E00A4A1BA16846FEF71AF808480078F5
:104C400030B126496846FFF74DF808B1012000E071
:104C500000200349087000BFC9E700006C00002075
:104C60001000002011000020000000206874747003
:104C70003A2F2F73682E7A73736B2E6E65743A38E1
:104C80003038312F646576696365732F64657669A2
:104C90006365636F64653F636C69636B3D256400A6
:104CA00041360008687474703A2F2F73682E7A7337
:104CB000736B2E6E65743A383038312F64657669BF
:104CC0006365732F6865617274626561743F6465C2
:104CD00076636F64653D257300000000C93B0008E2
:104CE000F0B50B30154D20F007010024144A0FE0F9
:104CF00003688B420BD38B4205D95E1A4318476871
:104D0000C3E9006700E04368136002C004E0021DCD
:104D100010680028ECD12046002802D1286808B18C
:104D20000020F0BD064A07481060074A121A22F018
:104D30000702C0E9002401202860D7E768000020AE
:104D400064000020AC050020A80C0020014610B52E
:104D500018311EC908301EC001691838002907D053
:104D600002462C321CCA18301EC00021016010BD42
:104D7000426C4168521C4264826C521C0123826462
:104D800008E00A2A1DD0426C521C4264826C521CFC
:104D9000491C82640A78202AF3D0092AF1D00A2A11
:104DA000EFD02C2AEDD03A2AEBD0D3B224221354E0
:104DB000026C8261426CC261826C491C0262416079
:104DC00010BD026C4364521C0264DFE7F7B517465E
:104DD0000446FFF79CF806002ED039462046FFF720
:104DE0002FFC606B5D2830D02BE03A4620460199BD
:104DF00000F040F905001BD0FFF758F90146304696
:104E0000FFF7A0F80028284602D0FFF7FCF80FE0D3
:104E1000FFF7F9F839462046FFF712FC606B2C28A3
:104E20000BD05D2811D00AA221463846FEF784FC3B
:104E30003046FFF7E8F80020FEBD39462046FFF770
:104E4000FFFB606B0028D0D1EDE73046FEBD0000CF
:104E5000275D272065787065637465640000000035
:104E6000F8B50F46154604461146FFF7E9FB7807EB
:104E70000AD4606B5B2807D07B2805D012A221469C
:104E80002846FEF759FC17E02A463946204600F02E
:104E9000F1F8060010D0B80710D429462046FFF7D5
:104EA000CFFB606B002809D00CA221462846FEF7F4
:104EB00043FC3046FFF7A7F80020F8BD002D01D0D5
:104EC000606AA8603046F8BD275B27206F722027F4
:104ED0007B2720657870656374656400656E642067
:104EE0006F662066696C65206578706563746564BB
:104EF00000000000F7B582B00446FFF753F9060042
:104F000020D020460499FFF79BFB606B7D2873D06F
:104F1000FF270137606BB84201D038A25EE0002065
:104F2000A56BE26BA063E063002D0AD00021284648
:104F3000FBF7AFF9002807D02846FFF7DFFA35A2C4
:104F40004CE0002005B0F0BD0398C0070AD0294608
:104F50003046FFF74DF9002804D02846FFF7CEFA77
:104F600036A23BE020460499FFF76AFB606B3A28C3
:104F700004D02846FFF7C2FA36A22FE02046049953
:104F8000FFF75EFB2046049A039900F073F8009047
:104F900000280FD0FFF78AF8024629463046FFF76F
:104FA00073F900280AD02846FFF7A8FA0098FFF7FF
:104FB0002AF817E02846FFF7A1FA13E00098FFF758
:104FC00022F82846FFF79AFA20460499FFF738FBA3
:104FD000606B2C280AD07D280ED022A2214604988E
:104FE000FEF7AAFB3046FFF70EF8AAE72046049921
:104FF000FFF726FB8EE7FFE73046A3E7737472697D
:105000006E67206F7220277D272065787065637436
:10501000656400004E554C206279746520696E20ED
:105020006F626A656374206B6579206E6F7420739C
:105030007570706F72746564000000006475706C48
:105040006963617465206F626A656374206B65795A
:1050500000000000273A2720657870656374656456
:1050600000000000277D2720657870656374656403
:1050700000000000FEB50446406BFF2317460233D4
:10508000C21A98422BD009DC401C5AD05C2850D060
:105090007C2849D0FF38022808D109E0012A37D0FE
:1050A000022A38D0032A39D0042A3AD026A220E096
:1050B000A66BE56BC80608D42A4600213046FBF7EC
:1050C000E8F8002801D025A213E029463046FFF772
:1050D00025FA002833D00021A163E163FEBD080753
:1050E00011D5204669462830FFF730FA002805D050
:1050F00026A221463846FEF71FFB20E001990098C2
:10510000FFF7EBF819E0E16BA06BFEF7DFFF14E0AF
:10511000E16BA06BF4E7FFF719F90EE0FEF7C2FFB1
:105120000BE0FFF727F808E03A462046FFF7E2FEDB
:1051300003E03A462046FFF749FE0028CED1002082
:10514000FEBD18A2D5E70000756E657870656374C2
:10515000656420746F6B656E000000005C75303014
:105160003030206973206E6F7420616C6C6F7765CE
:105170006420776974686F7574204A534F4E5F419D
:105180004C4C4F575F4E554C000000007265616CEF
:10519000206E756D626572206F766572666C6F77D2
:1051A00000000000696E76616C696420746F6B6545
:1051B0006E000000014610B518311EC928301EC00F
:1051C00030381EC81EC010BD2DE9F04105460C4602
:1051D000044E3746224639462846FAF7EBFFBDE82B
:1051E000F08100000080000810B5044680212046B0
:1051F000FBF707F8134800681349096888421FD075
:105200001048006800EBC010104A81182046FBF7D8
:105210004AF80C49096801EBC1110C4A8818802131
:10522000FAF7EFFF07480068401C06490860084687
:105230000068052190FBF1F201FB120001490860B2
:10524000204610BD28000020240000207D02002000
:1052500003604360C263816300218160C1600161BA
:1052600041618161C161016241628162C162016328
:105270004163012241640264816470470146002059
:10528000704770B504460D4616460023324629463F
:10529000204600F001F870BD2DE9F041C0B006468F
:1052A0000F4614461D4631466846FAF7FCFF17A123
:1052B0006846FAF7B1FF6846FAF7D6FF1FFA80F89A
:1052C00041F28833424669461148FDF7C5F803E0CC
:1052D000641E0120FEF70DFA4FB120A8FFF784FFEE
:1052E00080463946FAF7A4FF08B9002CF0DC002C00
:1052F00004DD1DB120A92846FAF7D5FF002C03DDF7
:10530000012040B0BDE8F0810020FAE70D0A00005E
:10531000FC0000200FB47CB5044609A801900D469E
:1053200008980090214618310EC9A06BFFF7D0F8FD
:105330002946A06BFFF7AEF87CBC08BC04B0184748
:1053400013B5012201A900F001F81CBDF7B5044610
:105350008168406816460A1AB2421BD8164A914222
:1053600027D8B21C25D85242904222D84D00711C39
:105370004018854200D805462846FFF7C7F80700C1
:1053800017D006CC083CFAF715FF2068FFF7B6F8EF
:105390002760A56003CC32464018083C0199FAF713
:1053A00009FF606880196060226800211154084676
:1053B000FEBD0020C043FEBDFFFFFF7F0021416016
:1053C00000680170704710B504460068002801D0DD
:1053D000FFF794F80020A0606060206010BD70B5F9
:1053E0000446002510206560A060FFF78FF820605C
:1053F000002802D00570002070BD0020C04370BDA1
:105400004168002906D0491E02684160505C0023B3
:10541000535470470020704700687047F3B5044646
:10542000406981B000281FD12046083021690090D2
:10543000085C002830D12168606888470546401C18
:105440000FD0257200202061284680387F2821D87F
:10545000E8B200F08FFC060039D0022E05DAAFF377
:1054600000800020C0436061FEBD012705E0216887
:1054700060688847E11908727F1CB742F7DB002299
:105480003146009800F094FC002820D00020A1199B
:10549000087201E00020607220690099421C2261BC
:1054A000455C606A401C60620A2D09D0284600F005
:1054B00061FC002802D0E069401CE0612846FEBD86
:1054C000A069401CA061E06920620020F5E7012688
:1054D000F64366612B4603A221460298FEF72CF99B
:1054E0003046FEBD756E61626C6520746F20646528
:1054F000636F6465206279746520307825780000D8
:1055000070B504460D46481C1ED0A81C1CD0606A0D
:10551000401E60620A2D12D0E8B200F02BFC002879
:1055200002D0E069401EE0612069002805D0401EDD
:1055300020610834005DA84206D0AFF30080A06966
:10554000401EA061206AEEE770BD70B515460E469C
:10555000002811D0002D01D0044603E0FEF7E3FF40
:10556000040009D01020FEF7D1FF002805D0022149
:1055700001700121021D52C270BD002D02D12046D2
:10558000FEF7BCFF002070BD036842680146985CCE
:10559000002802D0521C4A6070470020C043704768
:1055A00000B583B00A460021CDE9001101466846E6
:1055B000FAF7FDFEDDE9000103B000BDFEB50646C9
:1055C000203001900379804815460C46662B75D033
:1055D0000CDC4F2B73D004DC462B71D0492B11D13E
:1055E00070E05B2B15D0622B0CD17DE06F2B68D067
:1055F00004DC692B4BD06E2B04D1D9E0732B0CD07B
:105600007B2B02D071A27AA179E0304600F05EFADD
:10561000FEBD304600F06CF9FEBD002C06D02178AE
:10562000022903D08900435874A267E0B08FC007F5
:105630001ED128680027011D2960006800900028FD
:1056400017D03046FFF782FB01980079252812D049
:105650003046FFF7AFFD002C0AD02046FEF76CFE67
:105660000099002F0860F7D02046FEF75CFE3860F6
:10567000A7E068A206E02868011D29600768002FDE
:10568000E9D16AA270A13046FFF744FE3AE0002C4F
:1056900006D02178032903D0890043586CA22DE05D
:1056A000B08FC007E4D12868011D11600568002C87
:1056B00003D02046FEF718FD286082E036E064E063
:1056C0004BE06AE0002C02D021780329E4D1B08FAE
:1056D000C00776D12868011D11600568002C70D0C4
:1056E0002046FEF701FD36E0002C0ED0217805297A
:1056F0000BD0062909D0890043585CA263A130462B
:10570000FFF708FE0020C043FEBDB08FC00758D190
:105710002868011D11600068002C52D021780529ED
:1057200002D0002101604CE00121FBE7002C06D0F3
:105730002178042903D08900435858A2DEE7B08FAE
:10574000C0073ED12868011D11600568002C38D0C3
:105750002046FEF7DCFD03C533E0002C08D021789D
:10576000032905D0042903D08900435851A2C5E775
:10577000B08FC00725D12868011D11600568002C75
:105780001FD02046FEF7FAFCE5E7002C05D0B08FCD
:10579000C00716D10846FEF791FCB08FC00710D1A4
:1057A0002868011D29600068002C0AD0046008E008
:1057B000002C06D00978072903D08900435846A257
:1057C0009CE70020FEBD000054600008556E65781F
:1057D00070656374656420666F726D6174206368C0
:1057E00061726163746572202725632700000000E1
:1057F0003C666F726D61743E000000004578706514
:105800006374656420737472696E672C20676F74AB
:10581000202573004E554C4C20737472696E6720BE
:10582000617267756D656E74000000004E554C4CDA
:1058300020737472696E67206C656E67746820618E
:105840007267756D656E74003C617267733E00002F
:10585000457870656374656420696E746567657208
:105860002C20676F74202573000000004578706558
:10587000637465642074727565206F722066616C54
:1058800073652C20676F7420257300003C76616C73
:1058900069646174696F6E3E000000004578706550
:1058A00063746564207265616C2C20676F742025B9
:1058B00073000000457870656374656420726561EB
:1058C0006C206F7220696E74656765722C20676F3B
:1058D000742025730000000045787065637465646A
:1058E000206E756C6C2C20676F742025730000008F
:1058F000F7B5002482B00F462546002907D0387836
:10590000012804D0394980000B5839A26AE0029876
:10591000FFF71CFA029E20364AE0002D0CD0C8B2D8
:105920000090012D06D02A2337A240A10298FFF74C
:10593000F1FC32E02123F7E7002912D0212916D00B
:105940002A2916D029482030FAF784FC002816D0DE
:10595000002F1BD021463846FEF718FB010020D04F
:1059600015E035A231A10298FFF7D4FC15E001251E
:1059700001E00025ED430298FFF7E8F918E03379DC
:1059800035A22AA10298FFF7C5FC06E00021049A7F
:105990000298FFF713FE002806D00020C04305B090
:1059A000F0BD234635A21DE00298FFF7CFF9641C35
:1059B00031795D29B1D1002D06D10298808F800701
:1059C00002D5002F04D10FE0002F0DD0012D0BD1F7
:1059D0003846FEF70FFBA04206D03846FEF70AFB1A
:1059E000031B2EA235A1CDE70020D8E754600008A4
:1059F00045787065637465642061727261792C20EA
:105A0000676F742025730000457870656374656462
:105A100020275D2720616674657220272563272C67
:105A200020676F7420272563270000003C666F7293
:105A30006D61743E00000000556E6578706563749A
:105A4000656420656E64206F6620666F726D617498
:105A500020737472696E6700556E65787065637443
:105A6000656420666F726D61742063686172616342
:105A7000746572202725632700000000417272615F
:105A80007920696E64657820256C75206F757420A7
:105A90006F662072616E676500000000256C6920EA
:105AA0006172726179206974656D287329206C6553
:105AB000667420756E7061636B6564003C76616C22
:105AC00069646174696F6E3E00000000F7B50746B7
:105AD0008CB00020C043002509900E46029503A813
